{
  "contractName": "CryptoWallet",
  "abi": [
    {
      "inputs": [],
      "stateMutability": "nonpayable",
      "type": "constructor"
    },
    {
      "anonymous": false,
      "inputs": [
        {
          "indexed": false,
          "internalType": "uint256",
          "name": "from",
          "type": "uint256"
        },
        {
          "indexed": false,
          "internalType": "uint256",
          "name": "to",
          "type": "uint256"
        },
        {
          "indexed": false,
          "internalType": "string",
          "name": "currency",
          "type": "string"
        },
        {
          "indexed": false,
          "internalType": "uint256",
          "name": "amount",
          "type": "uint256"
        }
      ],
      "name": "TransactionSent",
      "type": "event"
    },
    {
      "anonymous": false,
      "inputs": [
        {
          "indexed": false,
          "internalType": "string",
          "name": "userName",
          "type": "string"
        },
        {
          "indexed": false,
          "internalType": "uint256",
          "name": "accountID",
          "type": "uint256"
        }
      ],
      "name": "UserCreated",
      "type": "event"
    },
    {
      "anonymous": false,
      "inputs": [
        {
          "indexed": false,
          "internalType": "string",
          "name": "message",
          "type": "string"
        },
        {
          "indexed": false,
          "internalType": "uint256",
          "name": "accountID",
          "type": "uint256"
        }
      ],
      "name": "UserLogin",
      "type": "event"
    },
    {
      "inputs": [
        {
          "internalType": "uint256",
          "name": "",
          "type": "uint256"
        }
      ],
      "name": "allTransactions",
      "outputs": [
        {
          "internalType": "uint256",
          "name": "senderID",
          "type": "uint256"
        },
        {
          "internalType": "uint256",
          "name": "receiverID",
          "type": "uint256"
        },
        {
          "internalType": "uint256",
          "name": "amountTransfered",
          "type": "uint256"
        },
        {
          "internalType": "string",
          "name": "currencyTransfered",
          "type": "string"
        },
        {
          "internalType": "string",
          "name": "tType",
          "type": "string"
        }
      ],
      "stateMutability": "view",
      "type": "function",
      "constant": true
    },
    {
      "inputs": [],
      "name": "totalTransactions",
      "outputs": [
        {
          "internalType": "uint256",
          "name": "",
          "type": "uint256"
        }
      ],
      "stateMutability": "view",
      "type": "function",
      "constant": true
    },
    {
      "inputs": [],
      "name": "totalUsers",
      "outputs": [
        {
          "internalType": "uint256",
          "name": "",
          "type": "uint256"
        }
      ],
      "stateMutability": "view",
      "type": "function",
      "constant": true
    },
    {
      "inputs": [
        {
          "internalType": "uint256",
          "name": "",
          "type": "uint256"
        }
      ],
      "name": "transactionsMap",
      "outputs": [
        {
          "internalType": "uint256",
          "name": "senderID",
          "type": "uint256"
        },
        {
          "internalType": "uint256",
          "name": "receiverID",
          "type": "uint256"
        },
        {
          "internalType": "uint256",
          "name": "amountTransfered",
          "type": "uint256"
        },
        {
          "internalType": "string",
          "name": "currencyTransfered",
          "type": "string"
        },
        {
          "internalType": "string",
          "name": "tType",
          "type": "string"
        }
      ],
      "stateMutability": "view",
      "type": "function",
      "constant": true
    },
    {
      "inputs": [
        {
          "internalType": "uint256",
          "name": "",
          "type": "uint256"
        }
      ],
      "name": "usersMap",
      "outputs": [
        {
          "internalType": "uint256",
          "name": "accountID",
          "type": "uint256"
        },
        {
          "internalType": "address",
          "name": "userAddress",
          "type": "address"
        },
        {
          "internalType": "string",
          "name": "userName",
          "type": "string"
        },
        {
          "internalType": "string",
          "name": "userBio",
          "type": "string"
        },
        {
          "internalType": "string",
          "name": "userPass",
          "type": "string"
        },
        {
          "internalType": "string",
          "name": "visaCard",
          "type": "string"
        },
        {
          "internalType": "bytes",
          "name": "userID",
          "type": "bytes"
        }
      ],
      "stateMutability": "view",
      "type": "function",
      "constant": true
    },
    {
      "inputs": [],
      "name": "getAllTransactions",
      "outputs": [
        {
          "components": [
            {
              "internalType": "uint256",
              "name": "senderID",
              "type": "uint256"
            },
            {
              "internalType": "uint256",
              "name": "receiverID",
              "type": "uint256"
            },
            {
              "internalType": "uint256",
              "name": "amountTransfered",
              "type": "uint256"
            },
            {
              "internalType": "string",
              "name": "currencyTransfered",
              "type": "string"
            },
            {
              "internalType": "string",
              "name": "tType",
              "type": "string"
            }
          ],
          "internalType": "struct CryptoWallet.Transaction[]",
          "name": "",
          "type": "tuple[]"
        }
      ],
      "stateMutability": "view",
      "type": "function",
      "constant": true
    },
    {
      "inputs": [
        {
          "internalType": "uint256",
          "name": "_tracer",
          "type": "uint256"
        }
      ],
      "name": "getUserModel",
      "outputs": [
        {
          "components": [
            {
              "internalType": "uint256",
              "name": "accountID",
              "type": "uint256"
            },
            {
              "internalType": "address",
              "name": "userAddress",
              "type": "address"
            },
            {
              "internalType": "string",
              "name": "userName",
              "type": "string"
            },
            {
              "internalType": "string",
              "name": "userBio",
              "type": "string"
            },
            {
              "internalType": "string",
              "name": "userPass",
              "type": "string"
            },
            {
              "internalType": "string",
              "name": "visaCard",
              "type": "string"
            },
            {
              "internalType": "string[5]",
              "name": "userCurrencies",
              "type": "string[5]"
            },
            {
              "internalType": "uint256[5]",
              "name": "userAmount",
              "type": "uint256[5]"
            },
            {
              "internalType": "bytes",
              "name": "userID",
              "type": "bytes"
            }
          ],
          "internalType": "struct CryptoWallet.User",
          "name": "",
          "type": "tuple"
        }
      ],
      "stateMutability": "view",
      "type": "function",
      "constant": true
    },
    {
      "inputs": [
        {
          "internalType": "uint256",
          "name": "_id",
          "type": "uint256"
        }
      ],
      "name": "getAmounts",
      "outputs": [
        {
          "internalType": "uint256[5]",
          "name": "",
          "type": "uint256[5]"
        }
      ],
      "stateMutability": "view",
      "type": "function",
      "constant": true
    },
    {
      "inputs": [
        {
          "internalType": "uint256",
          "name": "_id",
          "type": "uint256"
        }
      ],
      "name": "getCurrencies",
      "outputs": [
        {
          "internalType": "string[5]",
          "name": "",
          "type": "string[5]"
        }
      ],
      "stateMutability": "view",
      "type": "function",
      "constant": true
    },
    {
      "inputs": [
        {
          "internalType": "uint256",
          "name": "_id",
          "type": "uint256"
        },
        {
          "internalType": "uint256",
          "name": "_amount",
          "type": "uint256"
        },
        {
          "internalType": "string",
          "name": "_currency",
          "type": "string"
        }
      ],
      "name": "deposit",
      "outputs": [],
      "stateMutability": "nonpayable",
      "type": "function"
    },
    {
      "inputs": [
        {
          "internalType": "string",
          "name": "_userName",
          "type": "string"
        },
        {
          "internalType": "string",
          "name": "_userBio",
          "type": "string"
        },
        {
          "internalType": "string",
          "name": "_userPass",
          "type": "string"
        },
        {
          "internalType": "string",
          "name": "_visa",
          "type": "string"
        }
      ],
      "name": "signUp",
      "outputs": [],
      "stateMutability": "nonpayable",
      "type": "function"
    },
    {
      "inputs": [
        {
          "internalType": "uint256",
          "name": "_tracerID",
          "type": "uint256"
        },
        {
          "internalType": "string",
          "name": "_userName",
          "type": "string"
        },
        {
          "internalType": "string",
          "name": "_password",
          "type": "string"
        }
      ],
      "name": "login",
      "outputs": [
        {
          "components": [
            {
              "internalType": "uint256",
              "name": "accountID",
              "type": "uint256"
            },
            {
              "internalType": "address",
              "name": "userAddress",
              "type": "address"
            },
            {
              "internalType": "string",
              "name": "userName",
              "type": "string"
            },
            {
              "internalType": "string",
              "name": "userBio",
              "type": "string"
            },
            {
              "internalType": "string",
              "name": "userPass",
              "type": "string"
            },
            {
              "internalType": "string",
              "name": "visaCard",
              "type": "string"
            },
            {
              "internalType": "string[5]",
              "name": "userCurrencies",
              "type": "string[5]"
            },
            {
              "internalType": "uint256[5]",
              "name": "userAmount",
              "type": "uint256[5]"
            },
            {
              "internalType": "bytes",
              "name": "userID",
              "type": "bytes"
            }
          ],
          "internalType": "struct CryptoWallet.User",
          "name": "",
          "type": "tuple"
        },
        {
          "internalType": "bool",
          "name": "",
          "type": "bool"
        }
      ],
      "stateMutability": "nonpayable",
      "type": "function"
    },
    {
      "inputs": [
        {
          "internalType": "uint256",
          "name": "_senderId",
          "type": "uint256"
        },
        {
          "internalType": "uint256",
          "name": "_receiverId",
          "type": "uint256"
        },
        {
          "internalType": "uint256",
          "name": "_amount",
          "type": "uint256"
        },
        {
          "internalType": "string",
          "name": "_currency",
          "type": "string"
        }
      ],
      "name": "transferFund",
      "outputs": [],
      "stateMutability": "nonpayable",
      "type": "function"
    }
  ],
  "bytecode": "0x60806040523480156200001157600080fd5b5060008081905550600060018190555060405180610120016040528060005481526020013373ffffffffffffffffffffffffffffffffffffffff1681526020016040518060400160405280600c81526020017f48617373616e2049736d6174000000000000000000000000000000000000000081525081526020016040518060400160405280601181526020017f536f66747761726520656e67696e65657200000000000000000000000000000081525081526020016040518060400160405280600681526020017f313233343536000000000000000000000000000000000000000000000000000081525081526020016040518060400160405280600f81526020017f333734323435343535343030313236000000000000000000000000000000000081525081526020016040518060a001604052806040518060400160405280600381526020017f627463000000000000000000000000000000000000000000000000000000000081525081526020016040518060400160405280600381526020017f657468000000000000000000000000000000000000000000000000000000000081525081526020016040518060400160405280600381526020017f6c7463000000000000000000000000000000000000000000000000000000000081525081526020016040518060400160405280600381526020017f736f6c000000000000000000000000000000000000000000000000000000000081525081526020016040518060400160405280600381526020017f626e62000000000000000000000000000000000000000000000000000000000081525081525081526020016040518060a0016040528060008152602001600081526020016000815260200160008152602001600081525081526020016200031f6040518060400160405280600c81526020017f48617373616e2049736d617400000000000000000000000000000000000000008152506040518060400160405280600681526020017f3132333435360000000000000000000000000000000000000000000000000000815250620008cb60201b60201c565b81525060026000805481526020019081526020016000206000820151816000015560208201518160010160006101000a81548173ffffffffffffffffffffffffffffffffffffffff021916908373ffffffffffffffffffffffffffffffffffffffff1602179055506040820151816002019080519060200190620003a5929190620008f9565b506060820151816003019080519060200190620003c4929190620008f9565b506080820151816004019080519060200190620003e3929190620008f9565b5060a082015181600501908051906020019062000402929190620008f9565b5060c0820151816006019060056200041c9291906200098a565b5060e082015181600b0190600562000436929190620009e4565b506101008201518160100190805190602001906200045692919062000a29565b509050506000808154809291906200046e9062000b80565b919050555060405180610120016040528060005481526020013373ffffffffffffffffffffffffffffffffffffffff1681526020016040518060400160405280600c81526020017f41686d65642059617373696e000000000000000000000000000000000000000081525081526020016040518060400160405280601181526020017f536f66747761726520656e67696e65657200000000000000000000000000000081525081526020016040518060400160405280600681526020017f313233343536000000000000000000000000000000000000000000000000000081525081526020016040518060400160405280600f81526020017f353634333535343535343030313236000000000000000000000000000000000081525081526020016040518060a001604052806040518060400160405280600381526020017f627463000000000000000000000000000000000000000000000000000000000081525081526020016040518060400160405280600381526020017f657468000000000000000000000000000000000000000000000000000000000081525081526020016040518060400160405280600381526020017f6c7463000000000000000000000000000000000000000000000000000000000081525081526020016040518060400160405280600381526020017f736f6c000000000000000000000000000000000000000000000000000000000081525081526020016040518060400160405280600381526020017f626e62000000000000000000000000000000000000000000000000000000000081525081525081526020016040518060a001604052806000815260200160008152602001600081526020016000815260200160008152508152602001620007716040518060400160405280600c81526020017f41686d65642059617373696e00000000000000000000000000000000000000008152506040518060400160405280600681526020017f3132333435360000000000000000000000000000000000000000000000000000815250620008cb60201b60201c565b81525060026000805481526020019081526020016000206000820151816000015560208201518160010160006101000a81548173ffffffffffffffffffffffffffffffffffffffff021916908373ffffffffffffffffffffffffffffffffffffffff1602179055506040820151816002019080519060200190620007f7929190620008f9565b50606082015181600301908051906020019062000816929190620008f9565b50608082015181600401908051906020019062000835929190620008f9565b5060a082015181600501908051906020019062000854929190620008f9565b5060c0820151816006019060056200086e9291906200098a565b5060e082015181600b0190600562000888929190620009e4565b50610100820151816010019080519060200190620008a892919062000a29565b50905050600080815480929190620008c09062000b80565b919050555062000cdc565b60608282604051602001620008e292919062000c50565b604051602081830303815290604052905092915050565b828054620009079062000ca7565b90600052602060002090601f0160209004810192826200092b576000855562000977565b82601f106200094657805160ff191683800117855562000977565b8280016001018555821562000977579182015b828111156200097657825182559160200191906001019062000959565b5b50905062000986919062000aba565b5090565b8260058101928215620009d1579160200282015b82811115620009d0578251829080519060200190620009bf929190620008f9565b50916020019190600101906200099e565b5b509050620009e0919062000ad9565b5090565b826005810192821562000a16579160200282015b8281111562000a15578251825591602001919060010190620009f8565b5b50905062000a25919062000aba565b5090565b82805462000a379062000ca7565b90600052602060002090601f01602090048101928262000a5b576000855562000aa7565b82601f1062000a7657805160ff191683800117855562000aa7565b8280016001018555821562000aa7579182015b8281111562000aa657825182559160200191906001019062000a89565b5b50905062000ab6919062000aba565b5090565b5b8082111562000ad557600081600090555060010162000abb565b5090565b5b8082111562000afd576000818162000af3919062000b01565b5060010162000ada565b5090565b50805462000b0f9062000ca7565b6000825580601f1062000b23575062000b44565b601f01602090049060005260206000209081019062000b43919062000aba565b5b50565b7f4e487b7100000000000000000000000000000000000000000000000000000000600052601160045260246000fd5b6000819050919050565b600062000b8d8262000b76565b91507fffffffffffffffffffffffffffffffffffffffffffffffffffffffffffffffff820362000bc25762000bc162000b47565b5b600182019050919050565b600081519050919050565b600081905092915050565b60005b8381101562000c0357808201518184015260208101905062000be6565b8381111562000c13576000848401525b50505050565b600062000c268262000bcd565b62000c32818562000bd8565b935062000c4481856020860162000be3565b80840191505092915050565b600062000c5e828562000c19565b915062000c6c828462000c19565b91508190509392505050565b7f4e487b7100000000000000000000000000000000000000000000000000000000600052602260045260246000fd5b6000600282049050600182168062000cc057607f821691505b60208210810362000cd65762000cd562000c78565b5b50919050565b61428b8062000cec6000396000f3fe608060405234801561001057600080fd5b50600436106100cf5760003560e01c8063b9a600381161008c578063ca8dedc011610066578063ca8dedc014610230578063d7ff071414610261578063e2e9b55b14610295578063fca32ac3146102c5576100cf565b8063b9a60038146101c4578063ba3b0f80146101e2578063bff1f9e114610212576100cf565b80630f32001c146100d457806327506f531461010a578063589218f11461012857806359f7cf50146101445780635f370d35146101745780636a147216146101a8575b600080fd5b6100ee60048036038101906100e99190612d75565b6102e1565b6040516101019796959493929190612ee0565b60405180910390f35b6101126105eb565b60405161011f919061310a565b60405180910390f35b610142600480360381019061013d9190613191565b61078c565b005b61015e60048036038101906101599190612d75565b610d63565b60405161016b9190613316565b60405180910390f35b61018e60048036038101906101899190612d75565b610dc4565b60405161019f959493929190613331565b60405180910390f35b6101c260048036038101906101bd9190613392565b610f0a565b005b6101cc6112e6565b6040516101d9919061341a565b60405180910390f35b6101fc60048036038101906101f79190612d75565b6112ec565b60405161020991906134eb565b60405180910390f35b61021a6113cf565b604051610227919061341a565b60405180910390f35b61024a6004803603810190610245919061350d565b6113d5565b6040516102589291906137e0565b60405180910390f35b61027b60048036038101906102769190612d75565b611e12565b60405161028c959493929190613331565b60405180910390f35b6102af60048036038101906102aa9190612d75565b611f68565b6040516102bc9190613810565b60405180910390f35b6102df60048036038101906102da9190613832565b6123dc565b005b60026020528060005260406000206000915090508060000154908060010160009054906101000a900473ffffffffffffffffffffffffffffffffffffffff1690806002018054610330906138d5565b80601f016020809104026020016040519081016040528092919081815260200182805461035c906138d5565b80156103a95780601f1061037e576101008083540402835291602001916103a9565b820191906000526020600020905b81548152906001019060200180831161038c57829003601f168201915b5050505050908060030180546103be906138d5565b80601f01602080910402602001604051908101604052809291908181526020018280546103ea906138d5565b80156104375780601f1061040c57610100808354040283529160200191610437565b820191906000526020600020905b81548152906001019060200180831161041a57829003601f168201915b50505050509080600401805461044c906138d5565b80601f0160208091040260200160405190810160405280929190818152602001828054610478906138d5565b80156104c55780601f1061049a576101008083540402835291602001916104c5565b820191906000526020600020905b8154815290600101906020018083116104a857829003601f168201915b5050505050908060050180546104da906138d5565b80601f0160208091040260200160405190810160405280929190818152602001828054610506906138d5565b80156105535780601f1061052857610100808354040283529160200191610553565b820191906000526020600020905b81548152906001019060200180831161053657829003601f168201915b505050505090806010018054610568906138d5565b80601f0160208091040260200160405190810160405280929190818152602001828054610594906138d5565b80156105e15780601f106105b6576101008083540402835291602001916105e1565b820191906000526020600020905b8154815290600101906020018083116105c457829003601f168201915b5050505050905087565b60606004805480602002602001604051908101604052809291908181526020016000905b8282101561078357838290600052602060002090600502016040518060a0016040529081600082015481526020016001820154815260200160028201548152602001600382018054610660906138d5565b80601f016020809104026020016040519081016040528092919081815260200182805461068c906138d5565b80156106d95780601f106106ae576101008083540402835291602001916106d9565b820191906000526020600020905b8154815290600101906020018083116106bc57829003601f168201915b505050505081526020016004820180546106f2906138d5565b80601f016020809104026020016040519081016040528092919081815260200182805461071e906138d5565b801561076b5780601f106107405761010080835404028352916020019161076b565b820191906000526020600020905b81548152906001019060200180831161074e57829003601f168201915b5050505050815250508152602001906001019061060f565b50505050905090565b87878080601f016020809104026020016040519081016040528093929190818152602001838380828437600081840152601f19601f8201169050808301925050505050505084848080601f016020809104026020016040519081016040528093929190818152602001838380828437600081840152601f19601f820116905080830192505050505050506000610822838361263c565b90506000151561083182612668565b151514610873576040517f08c379a000000000000000000000000000000000000000000000000000000000815260040161086a90613952565b60405180910390fd5b60006109078c8c8080601f016020809104026020016040519081016040528093929190818152602001838380828437600081840152601f19601f8201169050808301925050505050505089898080601f016020809104026020016040519081016040528093929190818152602001838380828437600081840152601f19601f8201169050808301925050505050505061263c565b90506109116129d1565b60405180610120016040528060005481526020013373ffffffffffffffffffffffffffffffffffffffff1681526020018e8e8080601f016020809104026020016040519081016040528093929190818152602001838380828437600081840152601f19601f8201169050808301925050505050505081526020018c8c8080601f016020809104026020016040519081016040528093929190818152602001838380828437600081840152601f19601f8201169050808301925050505050505081526020018a8a8080601f016020809104026020016040519081016040528093929190818152602001838380828437600081840152601f19601f82011690508083019250505050505050815260200188888080601f016020809104026020016040519081016040528093929190818152602001838380828437600081840152601f19601f8201169050808301925050505050505081526020016040518060a001604052806040518060400160405280600381526020017f627463000000000000000000000000000000000000000000000000000000000081525081526020016040518060400160405280600381526020017f657468000000000000000000000000000000000000000000000000000000000081525081526020016040518060400160405280600381526020017f6c7463000000000000000000000000000000000000000000000000000000000081525081526020016040518060400160405280600381526020017f736f6c000000000000000000000000000000000000000000000000000000000081525081526020016040518060400160405280600381526020017f626e62000000000000000000000000000000000000000000000000000000000081525081525081526020016040518060a0016040528060008152602001600081526020016000815260200160008152602001600081525081526020018381525090508060026000805481526020019081526020016000206000820151816000015560208201518160010160006101000a81548173ffffffffffffffffffffffffffffffffffffffff021916908373ffffffffffffffffffffffffffffffffffffffff1602179055506040820151816002019080519060200190610c57929190612a3f565b506060820151816003019080519060200190610c74929190612a3f565b506080820151816004019080519060200190610c91929190612a3f565b5060a0820151816005019080519060200190610cae929190612a3f565b5060c082015181600601906005610cc6929190612ac5565b5060e082015181600b01906005610cde929190612b18565b50610100820151816010019080519060200190610cfc929190612b58565b509050507f7fa2200db6d5ae99b26bc877cbae73fdb888db23bd9bd4b4d1ea273013186bb78d8d600054604051610d35939291906139ae565b60405180910390a1600080815480929190610d4f90613a0f565b919050555050505050505050505050505050565b610d6b612bde565b60026000838152602001908152602001600020600b01600580602002604051908101604052809291908260058015610db8576020028201915b815481526020019060010190808311610da4575b50505050509050919050565b6003602052806000526040600020600091509050806000015490806001015490806002015490806003018054610df9906138d5565b80601f0160208091040260200160405190810160405280929190818152602001828054610e25906138d5565b8015610e725780601f10610e4757610100808354040283529160200191610e72565b820191906000526020600020905b815481529060010190602001808311610e5557829003601f168201915b505050505090806004018054610e87906138d5565b80601f0160208091040260200160405190810160405280929190818152602001828054610eb3906138d5565b8015610f005780601f10610ed557610100808354040283529160200191610f00565b820191906000526020600020905b815481529060010190602001808311610ee357829003601f168201915b5050505050905085565b84828285886000610f1b858561270b565b905060011515610f2a8361291a565b151514610f6c576040517f08c379a0000000000000000000000000000000000000000000000000000000008152600401610f6390613aa3565b60405180910390fd5b600060026000888152602001908152602001600020600b018260058110610f9657610f95613ac3565b5b015411610fd8576040517f08c379a0000000000000000000000000000000000000000000000000000000008152600401610fcf90613b3e565b60405180910390fd5b8260026000888152602001908152602001600020600b01826005811061100157611000613ac3565b5b015411611043576040517f08c379a000000000000000000000000000000000000000000000000000000000815260040161103a90613b3e565b60405180910390fd5b600061104f898961270b565b905089600260008e8152602001908152602001600020600b01826005811061107a57611079613ac3565b5b01600082825461108a9190613b5e565b9250508190555089600260008d8152602001908152602001600020600b0182600581106110ba576110b9613ac3565b5b0160008282546110ca9190613b92565b925050819055507fa00b33dad7baf50df6de309c7e602b3e46f250b12fda79d2f23f6c7f17af2fae8c8c8b8b8e604051611108959493929190613be8565b60405180910390a16040518060a001604052808d81526020018c81526020018b81526020018a8a8080601f016020809104026020016040519081016040528093929190818152602001838380828437600081840152601f19601f8201169050808301925050505050505081526020016040518060400160405280600881526020017f5472616e7366657200000000000000000000000000000000000000000000000081525081525060036000600154815260200190815260200160002060008201518160000155602082015181600101556040820151816002015560608201518160030190805190602001906111ff929190612a3f565b50608082015181600401908051906020019061121c929190612a3f565b50905050600460036000600154815260200190815260200160002090806001815401808255809150506001900390600052602060002090600502016000909190919091506000820154816000015560018201548160010155600282015481600201556003820181600301908054611292906138d5565b61129d929190612c00565b5060048201816004019080546112b2906138d5565b6112bd929190612c00565b505050600160008154809291906112d390613a0f565b9190505550505050505050505050505050565b60015481565b6112f4612c8d565b60026000838152602001908152602001600020600601600580602002604051908101604052809291906000905b828210156113c4578382018054611337906138d5565b80601f0160208091040260200160405190810160405280929190818152602001828054611363906138d5565b80156113b05780601f10611385576101008083540402835291602001916113b0565b820191906000526020600020905b81548152906001019060200180831161139357829003601f168201915b505050505081526020019060010190611321565b505050509050919050565b60005481565b6113dd6129d1565b600085856040516020016113f2929190613c66565b604051602081830303815290604052805190602001206002600089815260200190815260200160002060020160405160200161142e9190613d13565b604051602081830303815290604052805190602001201480156114b35750838360405160200161145f929190613c66565b604051602081830303815290604052805190602001206002600089815260200190815260200160002060040160405160200161149b9190613d13565b60405160208183030381529060405280519060200120145b15611962577fa69ef46d93796414895383799161bdad124cdd3e0cdbf8b6758bb16e07210cf5876040516114e79190613d76565b60405180910390a16002600088815260200190815260200160002060018160405180610120016040529081600082015481526020016001820160009054906101000a900473ffffffffffffffffffffffffffffffffffffffff1673ffffffffffffffffffffffffffffffffffffffff1673ffffffffffffffffffffffffffffffffffffffff168152602001600282018054611581906138d5565b80601f01602080910402602001604051908101604052809291908181526020018280546115ad906138d5565b80156115fa5780601f106115cf576101008083540402835291602001916115fa565b820191906000526020600020905b8154815290600101906020018083116115dd57829003601f168201915b50505050508152602001600382018054611613906138d5565b80601f016020809104026020016040519081016040528092919081815260200182805461163f906138d5565b801561168c5780601f106116615761010080835404028352916020019161168c565b820191906000526020600020905b81548152906001019060200180831161166f57829003601f168201915b505050505081526020016004820180546116a5906138d5565b80601f01602080910402602001604051908101604052809291908181526020018280546116d1906138d5565b801561171e5780601f106116f35761010080835404028352916020019161171e565b820191906000526020600020905b81548152906001019060200180831161170157829003601f168201915b50505050508152602001600582018054611737906138d5565b80601f0160208091040260200160405190810160405280929190818152602001828054611763906138d5565b80156117b05780601f10611785576101008083540402835291602001916117b0565b820191906000526020600020905b81548152906001019060200180831161179357829003601f168201915b5050505050815260200160068201600580602002604051908101604052809291906000905b828210156118785783820180546117eb906138d5565b80601f0160208091040260200160405190810160405280929190818152602001828054611817906138d5565b80156118645780601f1061183957610100808354040283529160200191611864565b820191906000526020600020905b81548152906001019060200180831161184757829003601f168201915b5050505050815260200190600101906117d5565b505050508152602001600b82016005806020026040519081016040528092919082600580156118bc576020028201915b8154815260200190600101908083116118a8575b505050505081526020016010820180546118d5906138d5565b80601f0160208091040260200160405190810160405280929190818152602001828054611901906138d5565b801561194e5780601f106119235761010080835404028352916020019161194e565b820191906000526020600020905b81548152906001019060200180831161193157829003601f168201915b505050505081525050915091509150611e08565b7fa69ef46d93796414895383799161bdad124cdd3e0cdbf8b6758bb16e07210cf5876040516119919190613df0565b60405180910390a16002600088815260200190815260200160002060008160405180610120016040529081600082015481526020016001820160009054906101000a900473ffffffffffffffffffffffffffffffffffffffff1673ffffffffffffffffffffffffffffffffffffffff1673ffffffffffffffffffffffffffffffffffffffff168152602001600282018054611a2b906138d5565b80601f0160208091040260200160405190810160405280929190818152602001828054611a57906138d5565b8015611aa45780601f10611a7957610100808354040283529160200191611aa4565b820191906000526020600020905b815481529060010190602001808311611a8757829003601f168201915b50505050508152602001600382018054611abd906138d5565b80601f0160208091040260200160405190810160405280929190818152602001828054611ae9906138d5565b8015611b365780601f10611b0b57610100808354040283529160200191611b36565b820191906000526020600020905b815481529060010190602001808311611b1957829003601f168201915b50505050508152602001600482018054611b4f906138d5565b80601f0160208091040260200160405190810160405280929190818152602001828054611b7b906138d5565b8015611bc85780601f10611b9d57610100808354040283529160200191611bc8565b820191906000526020600020905b815481529060010190602001808311611bab57829003601f168201915b50505050508152602001600582018054611be1906138d5565b80601f0160208091040260200160405190810160405280929190818152602001828054611c0d906138d5565b8015611c5a5780601f10611c2f57610100808354040283529160200191611c5a565b820191906000526020600020905b815481529060010190602001808311611c3d57829003601f168201915b5050505050815260200160068201600580602002604051908101604052809291906000905b82821015611d22578382018054611c95906138d5565b80601f0160208091040260200160405190810160405280929190818152602001828054611cc1906138d5565b8015611d0e5780601f10611ce357610100808354040283529160200191611d0e565b820191906000526020600020905b815481529060010190602001808311611cf157829003601f168201915b505050505081526020019060010190611c7f565b505050508152602001600b8201600580602002604051908101604052809291908260058015611d66576020028201915b815481526020019060010190808311611d52575b50505050508152602001601082018054611d7f906138d5565b80601f0160208091040260200160405190810160405280929190818152602001828054611dab906138d5565b8015611df85780601f10611dcd57610100808354040283529160200191611df8565b820191906000526020600020905b815481529060010190602001808311611ddb57829003601f168201915b5050505050815250509150915091505b9550959350505050565b60048181548110611e2257600080fd5b9060005260206000209060050201600091509050806000015490806001015490806002015490806003018054611e57906138d5565b80601f0160208091040260200160405190810160405280929190818152602001828054611e83906138d5565b8015611ed05780601f10611ea557610100808354040283529160200191611ed0565b820191906000526020600020905b815481529060010190602001808311611eb357829003601f168201915b505050505090806004018054611ee5906138d5565b80601f0160208091040260200160405190810160405280929190818152602001828054611f11906138d5565b8015611f5e5780601f10611f3357610100808354040283529160200191611f5e565b820191906000526020600020905b815481529060010190602001808311611f4157829003601f168201915b5050505050905085565b611f706129d1565b6002600083815260200190815260200160002060405180610120016040529081600082015481526020016001820160009054906101000a900473ffffffffffffffffffffffffffffffffffffffff1673ffffffffffffffffffffffffffffffffffffffff1673ffffffffffffffffffffffffffffffffffffffff168152602001600282018054611fff906138d5565b80601f016020809104026020016040519081016040528092919081815260200182805461202b906138d5565b80156120785780601f1061204d57610100808354040283529160200191612078565b820191906000526020600020905b81548152906001019060200180831161205b57829003601f168201915b50505050508152602001600382018054612091906138d5565b80601f01602080910402602001604051908101604052809291908181526020018280546120bd906138d5565b801561210a5780601f106120df5761010080835404028352916020019161210a565b820191906000526020600020905b8154815290600101906020018083116120ed57829003601f168201915b50505050508152602001600482018054612123906138d5565b80601f016020809104026020016040519081016040528092919081815260200182805461214f906138d5565b801561219c5780601f106121715761010080835404028352916020019161219c565b820191906000526020600020905b81548152906001019060200180831161217f57829003601f168201915b505050505081526020016005820180546121b5906138d5565b80601f01602080910402602001604051908101604052809291908181526020018280546121e1906138d5565b801561222e5780601f106122035761010080835404028352916020019161222e565b820191906000526020600020905b81548152906001019060200180831161221157829003601f168201915b5050505050815260200160068201600580602002604051908101604052809291906000905b828210156122f6578382018054612269906138d5565b80601f0160208091040260200160405190810160405280929190818152602001828054612295906138d5565b80156122e25780601f106122b7576101008083540402835291602001916122e2565b820191906000526020600020905b8154815290600101906020018083116122c557829003601f168201915b505050505081526020019060010190612253565b505050508152602001600b820160058060200260405190810160405280929190826005801561233a576020028201915b815481526020019060010190808311612326575b50505050508152602001601082018054612353906138d5565b80601f016020809104026020016040519081016040528092919081815260200182805461237f906138d5565b80156123cc5780601f106123a1576101008083540402835291602001916123cc565b820191906000526020600020905b8154815290600101906020018083116123af57829003601f168201915b5050505050815250509050919050565b60006123e8838361270b565b90508360026000878152602001908152602001600020600b01826005811061241357612412613ac3565b5b0160008282546124239190613b92565b925050819055507fa00b33dad7baf50df6de309c7e602b3e46f250b12fda79d2f23f6c7f17af2fae6103e886858588604051612463959493929190613e63565b60405180910390a16040518060a001604052806103e8815260200186815260200185815260200184848080601f016020809104026020016040519081016040528093929190818152602001838380828437600081840152601f19601f8201169050808301925050505050505081526020016040518060400160405280600781526020017f4465706f73697400000000000000000000000000000000000000000000000000815250815250600360006001548152602001908152602001600020600082015181600001556020820151816001015560408201518160020155606082015181600301908051906020019061255c929190612a3f565b506080820151816004019080519060200190612579929190612a3f565b509050506004600360006001548152602001908152602001600020908060018154018082558091505060019003906000526020600020906005020160009091909190915060008201548160000155600182015481600101556002820154816002015560038201816003019080546125ef906138d5565b6125fa929190612c00565b50600482018160040190805461260f906138d5565b61261a929190612c00565b5050506001600081548092919061263090613a0f565b91905055505050505050565b60608282604051602001612651929190613ee2565b604051602081830303815290604052905092915050565b60008060005b60005481101561270157836040516020016126899190613f42565b60405160208183030381529060405280519060200120600260008381526020019081526020016000206010016040516020016126c59190613fed565b60405160208183030381529060405280519060200120036126e957600191506126ee565b600091505b80806126f990613a0f565b91505061266e565b5080915050919050565b600060405160200161271c90614050565b604051602081830303815290604052805190602001208383604051602001612745929190613c66565b60405160208183030381529060405280519060200120036127695760009050612914565b604051602001612778906140b1565b6040516020818303038152906040528051906020012083836040516020016127a1929190613c66565b60405160208183030381529060405280519060200120036127c55760019050612914565b6040516020016127d490614112565b6040516020818303038152906040528051906020012083836040516020016127fd929190613c66565b60405160208183030381529060405280519060200120036128215760029050612914565b60405160200161283090614173565b604051602081830303815290604052805190602001208383604051602001612859929190613c66565b604051602081830303815290604052805190602001200361287d5760039050612914565b60405160200161288c906141d4565b6040516020818303038152906040528051906020012083836040516020016128b5929190613c66565b60405160208183030381529060405280519060200120036128d95760049050612914565b6040517f08c379a000000000000000000000000000000000000000000000000000000000815260040161290b90614235565b60405180910390fd5b92915050565b60008060005b6000548110156129c757600260008581526020019081526020016000206010016040516020016129509190613fed565b604051602081830303815290604052805190602001206002600083815260200190815260200160002060100160405160200161298c9190613fed565b60405160208183030381529060405280519060200120036129b057600191506129c7565b6000915080806129bf90613a0f565b915050612920565b5080915050919050565b60405180610120016040528060008152602001600073ffffffffffffffffffffffffffffffffffffffff16815260200160608152602001606081526020016060815260200160608152602001612a25612c8d565b8152602001612a32612bde565b8152602001606081525090565b828054612a4b906138d5565b90600052602060002090601f016020900481019282612a6d5760008555612ab4565b82601f10612a8657805160ff1916838001178555612ab4565b82800160010185558215612ab4579182015b82811115612ab3578251825591602001919060010190612a98565b5b509050612ac19190612cb4565b5090565b8260058101928215612b07579160200282015b82811115612b06578251829080519060200190612af6929190612a3f565b5091602001919060010190612ad8565b5b509050612b149190612cd1565b5090565b8260058101928215612b47579160200282015b82811115612b46578251825591602001919060010190612b2b565b5b509050612b549190612cb4565b5090565b828054612b64906138d5565b90600052602060002090601f016020900481019282612b865760008555612bcd565b82601f10612b9f57805160ff1916838001178555612bcd565b82800160010185558215612bcd579182015b82811115612bcc578251825591602001919060010190612bb1565b5b509050612bda9190612cb4565b5090565b6040518060a00160405280600590602082028036833780820191505090505090565b828054612c0c906138d5565b90600052602060002090601f016020900481019282612c2e5760008555612c7c565b82601f10612c3f5780548555612c7c565b82800160010185558215612c7c57600052602060002091601f016020900482015b82811115612c7b578254825591600101919060010190612c60565b5b509050612c899190612cb4565b5090565b6040518060a001604052806005905b6060815260200190600190039081612c9c5790505090565b5b80821115612ccd576000816000905550600101612cb5565b5090565b5b80821115612cf15760008181612ce89190612cf5565b50600101612cd2565b5090565b508054612d01906138d5565b6000825580601f10612d135750612d32565b601f016020900490600052602060002090810190612d319190612cb4565b5b50565b600080fd5b600080fd5b6000819050919050565b612d5281612d3f565b8114612d5d57600080fd5b50565b600081359050612d6f81612d49565b92915050565b600060208284031215612d8b57612d8a612d35565b5b6000612d9984828501612d60565b91505092915050565b612dab81612d3f565b82525050565b600073ffffffffffffffffffffffffffffffffffffffff82169050919050565b6000612ddc82612db1565b9050919050565b612dec81612dd1565b82525050565b600081519050919050565b600082825260208201905092915050565b60005b83811015612e2c578082015181840152602081019050612e11565b83811115612e3b576000848401525b50505050565b6000601f19601f8301169050919050565b6000612e5d82612df2565b612e678185612dfd565b9350612e77818560208601612e0e565b612e8081612e41565b840191505092915050565b600081519050919050565b600082825260208201905092915050565b6000612eb282612e8b565b612ebc8185612e96565b9350612ecc818560208601612e0e565b612ed581612e41565b840191505092915050565b600060e082019050612ef5600083018a612da2565b612f026020830189612de3565b8181036040830152612f148188612e52565b90508181036060830152612f288187612e52565b90508181036080830152612f3c8186612e52565b905081810360a0830152612f508185612e52565b905081810360c0830152612f648184612ea7565b905098975050505050505050565b600081519050919050565b600082825260208201905092915050565b6000819050602082019050919050565b612fa781612d3f565b82525050565b600082825260208201905092915050565b6000612fc982612df2565b612fd38185612fad565b9350612fe3818560208601612e0e565b612fec81612e41565b840191505092915050565b600060a08301600083015161300f6000860182612f9e565b5060208301516130226020860182612f9e565b5060408301516130356040860182612f9e565b506060830151848203606086015261304d8282612fbe565b915050608083015184820360808601526130678282612fbe565b9150508091505092915050565b60006130808383612ff7565b905092915050565b6000602082019050919050565b60006130a082612f72565b6130aa8185612f7d565b9350836020820285016130bc85612f8e565b8060005b858110156130f857848403895281516130d98582613074565b94506130e483613088565b925060208a019950506001810190506130c0565b50829750879550505050505092915050565b600060208201905081810360008301526131248184613095565b905092915050565b600080fd5b600080fd5b600080fd5b60008083601f8401126131515761315061312c565b5b8235905067ffffffffffffffff81111561316e5761316d613131565b5b60208301915083600182028301111561318a57613189613136565b5b9250929050565b6000806000806000806000806080898b0312156131b1576131b0612d35565b5b600089013567ffffffffffffffff8111156131cf576131ce612d3a565b5b6131db8b828c0161313b565b9850985050602089013567ffffffffffffffff8111156131fe576131fd612d3a565b5b61320a8b828c0161313b565b9650965050604089013567ffffffffffffffff81111561322d5761322c612d3a565b5b6132398b828c0161313b565b9450945050606089013567ffffffffffffffff81111561325c5761325b612d3a565b5b6132688b828c0161313b565b92509250509295985092959890939650565b600060059050919050565b600081905092915050565b6000819050919050565b60006132a68383612f9e565b60208301905092915050565b6000602082019050919050565b6132c88161327a565b6132d28184613285565b92506132dd82613290565b8060005b8381101561330e5781516132f5878261329a565b9650613300836132b2565b9250506001810190506132e1565b505050505050565b600060a08201905061332b60008301846132bf565b92915050565b600060a0820190506133466000830188612da2565b6133536020830187612da2565b6133606040830186612da2565b81810360608301526133728185612e52565b905081810360808301526133868184612e52565b90509695505050505050565b6000806000806000608086880312156133ae576133ad612d35565b5b60006133bc88828901612d60565b95505060206133cd88828901612d60565b94505060406133de88828901612d60565b935050606086013567ffffffffffffffff8111156133ff576133fe612d3a565b5b61340b8882890161313b565b92509250509295509295909350565b600060208201905061342f6000830184612da2565b92915050565b600060059050919050565b600081905092915050565b6000819050919050565b60006134618383612fbe565b905092915050565b6000602082019050919050565b600061348182613435565b61348b8185613440565b93508360208202850161349d8561344b565b8060005b858110156134d957848403895281516134ba8582613455565b94506134c583613469565b925060208a019950506001810190506134a1565b50829750879550505050505092915050565b600060208201905081810360008301526135058184613476565b905092915050565b60008060008060006060868803121561352957613528612d35565b5b600061353788828901612d60565b955050602086013567ffffffffffffffff81111561355857613557612d3a565b5b6135648882890161313b565b9450945050604086013567ffffffffffffffff81111561358757613586612d3a565b5b6135938882890161313b565b92509250509295509295909350565b6135ab81612dd1565b82525050565b600081905092915050565b60006135c782613435565b6135d181856135b1565b9350836020820285016135e38561344b565b8060005b8581101561361f57848403895281516136008582613455565b945061360b83613469565b925060208a019950506001810190506135e7565b50829750879550505050505092915050565b600081905092915050565b6136458161327a565b61364f8184613631565b925061365a82613290565b8060005b8381101561368b578151613672878261329a565b965061367d836132b2565b92505060018101905061365e565b505050505050565b600082825260208201905092915050565b60006136af82612e8b565b6136b98185613693565b93506136c9818560208601612e0e565b6136d281612e41565b840191505092915050565b60006101a0830160008301516136f66000860182612f9e565b50602083015161370960208601826135a2565b50604083015184820360408601526137218282612fbe565b9150506060830151848203606086015261373b8282612fbe565b915050608083015184820360808601526137558282612fbe565b91505060a083015184820360a086015261376f8282612fbe565b91505060c083015184820360c086015261378982826135bc565b91505060e083015161379e60e086018261363c565b506101008301518482036101808601526137b882826136a4565b9150508091505092915050565b60008115159050919050565b6137da816137c5565b82525050565b600060408201905081810360008301526137fa81856136dd565b905061380960208301846137d1565b9392505050565b6000602082019050818103600083015261382a81846136dd565b905092915050565b6000806000806060858703121561384c5761384b612d35565b5b600061385a87828801612d60565b945050602061386b87828801612d60565b935050604085013567ffffffffffffffff81111561388c5761388b612d3a565b5b6138988782880161313b565b925092505092959194509250565b7f4e487b7100000000000000000000000000000000000000000000000000000000600052602260045260246000fd5b600060028204905060018216806138ed57607f821691505b602082108103613900576138ff6138a6565b5b50919050565b7f5573657220416c72656164792045786973747300000000000000000000000000600082015250565b600061393c601383612dfd565b915061394782613906565b602082019050919050565b6000602082019050818103600083015261396b8161392f565b9050919050565b82818337600083830152505050565b600061398d8385612dfd565b935061399a838584613972565b6139a383612e41565b840190509392505050565b600060408201905081810360008301526139c9818587613981565b90506139d86020830184612da2565b949350505050565b7f4e487b7100000000000000000000000000000000000000000000000000000000600052601160045260246000fd5b6000613a1a82612d3f565b91507fffffffffffffffffffffffffffffffffffffffffffffffffffffffffffffffff8203613a4c57613a4b6139e0565b5b600182019050919050565b7f55736572206e6f74204578697374730000000000000000000000000000000000600082015250565b6000613a8d600f83612dfd565b9150613a9882613a57565b602082019050919050565b60006020820190508181036000830152613abc81613a80565b9050919050565b7f4e487b7100000000000000000000000000000000000000000000000000000000600052603260045260246000fd5b7f4e6f7420656e6f75676820636f696e7300000000000000000000000000000000600082015250565b6000613b28601083612dfd565b9150613b3382613af2565b602082019050919050565b60006020820190508181036000830152613b5781613b1b565b9050919050565b6000613b6982612d3f565b9150613b7483612d3f565b925082821015613b8757613b866139e0565b5b828203905092915050565b6000613b9d82612d3f565b9150613ba883612d3f565b9250827fffffffffffffffffffffffffffffffffffffffffffffffffffffffffffffffff03821115613bdd57613bdc6139e0565b5b828201905092915050565b6000608082019050613bfd6000830188612da2565b613c0a6020830187612da2565b8181036040830152613c1d818587613981565b9050613c2c6060830184612da2565b9695505050505050565b600081905092915050565b6000613c4d8385613c36565b9350613c5a838584613972565b82840190509392505050565b6000613c73828486613c41565b91508190509392505050565b60008190508160005260206000209050919050565b60008154613ca1816138d5565b613cab8186613c36565b94506001821660008114613cc65760018114613cd757613d0a565b60ff19831686528186019350613d0a565b613ce085613c7f565b60005b83811015613d0257815481890152600182019150602081019050613ce3565b838801955050505b50505092915050565b6000613d1f8284613c94565b915081905092915050565b7f5375636365737366756c6c79204c6f67696e0000000000000000000000000000600082015250565b6000613d60601283612dfd565b9150613d6b82613d2a565b602082019050919050565b60006040820190508181036000830152613d8f81613d53565b9050613d9e6020830184612da2565b92915050565b7f4c6f67696e204661696c65642c204e6f207573657220666f756e640000000000600082015250565b6000613dda601b83612dfd565b9150613de582613da4565b602082019050919050565b60006040820190508181036000830152613e0981613dcd565b9050613e186020830184612da2565b92915050565b6000819050919050565b6000819050919050565b6000613e4d613e48613e4384613e1e565b613e28565b612d3f565b9050919050565b613e5d81613e32565b82525050565b6000608082019050613e786000830188613e54565b613e856020830187612da2565b8181036040830152613e98818587613981565b9050613ea76060830184612da2565b9695505050505050565b6000613ebc82612df2565b613ec68185613c36565b9350613ed6818560208601612e0e565b80840191505092915050565b6000613eee8285613eb1565b9150613efa8284613eb1565b91508190509392505050565b600081905092915050565b6000613f1c82612e8b565b613f268185613f06565b9350613f36818560208601612e0e565b80840191505092915050565b6000613f4e8284613f11565b915081905092915050565b60008190508160005260206000209050919050565b60008154613f7b816138d5565b613f858186613f06565b94506001821660008114613fa05760018114613fb157613fe4565b60ff19831686528186019350613fe4565b613fba85613f59565b60005b83811015613fdc57815481890152600182019150602081019050613fbd565b838801955050505b50505092915050565b6000613ff98284613f6e565b915081905092915050565b7f6274630000000000000000000000000000000000000000000000000000000000600082015250565b600061403a600383613c36565b915061404582614004565b600382019050919050565b600061405b8261402d565b9150819050919050565b7f6574680000000000000000000000000000000000000000000000000000000000600082015250565b600061409b600383613c36565b91506140a682614065565b600382019050919050565b60006140bc8261408e565b9150819050919050565b7f6c74630000000000000000000000000000000000000000000000000000000000600082015250565b60006140fc600383613c36565b9150614107826140c6565b600382019050919050565b600061411d826140ef565b9150819050919050565b7f736f6c0000000000000000000000000000000000000000000000000000000000600082015250565b600061415d600383613c36565b915061416882614127565b600382019050919050565b600061417e82614150565b9150819050919050565b7f626e620000000000000000000000000000000000000000000000000000000000600082015250565b60006141be600383613c36565b91506141c982614188565b600382019050919050565b60006141df826141b1565b9150819050919050565b7f57726f6e6720436f696e204465706f736974696f6e2050726f76696465640000600082015250565b600061421f601e83612dfd565b915061422a826141e9565b602082019050919050565b6000602082019050818103600083015261424e81614212565b905091905056fea2646970667358221220600aefdd12eee8ea5541fe0419dbd496d3973fb325c45bcd9e0fdfc95179e9a864736f6c634300080d0033",
  "immutableReferences": {},
  "source": "// SPDX-License-Identifier: MIT\npragma solidity >=0.4.22 <0.9.0;\n\ncontract CryptoWallet {\n    uint public totalUsers;\n    uint public totalTransactions;\n\n    constructor() {\n        totalUsers = 0;\n        totalTransactions = 0;\n        usersMap[totalUsers] = User({\n            accountID: totalUsers,\n            userAddress: msg.sender,\n            userName: \"Hassan Ismat\",\n            userBio: \"Software engineer\",\n            userPass: \"123456\",\n            visaCard: \"374245455400126\",\n            userCurrencies: [\"btc\", \"eth\", \"ltc\", \"sol\", \"bnb\"],\n            userAmount: [uint(0), uint(0), uint(0), uint(0), uint(0)],\n            userID: generateUserID(\"Hassan Ismat\", \"123456\")\n        });\n        totalUsers++;\n        usersMap[totalUsers] = User({\n            accountID: totalUsers,\n            userAddress: msg.sender,\n            userName: \"Ahmed Yassin\",\n            userBio: \"Software engineer\",\n            userPass: \"123456\",\n            visaCard: \"564355455400126\",\n            userCurrencies: [\"btc\", \"eth\", \"ltc\", \"sol\", \"bnb\"],\n            userAmount: [uint(0), uint(0), uint(0), uint(0), uint(0)],\n            userID: generateUserID(\"Ahmed Yassin\", \"123456\")\n        });\n        totalUsers++;\n    }\n\n    struct Transaction {\n        uint senderID; // PK\n        uint receiverID;\n        uint amountTransfered;\n        string currencyTransfered;\n        string tType;\n    }\n    struct User {\n        uint accountID;\n        address userAddress;\n        string userName;\n        string userBio;\n        string userPass;\n        string visaCard;\n        string[5] userCurrencies;\n        uint[5] userAmount;\n        bytes userID;\n    }\n\n    event UserCreated(string userName, uint accountID);\n    event UserLogin(string message, uint accountID);\n    event TransactionSent(uint from, uint to, string currency, uint amount);\n\n    mapping(uint => User) public usersMap;\n    mapping(uint => Transaction) public transactionsMap;\n    Transaction[] public allTransactions;\n\n    // modifiers\n    modifier notOverWriteUser(string memory _uName, string memory _uPass) {\n        bytes memory userID = generateUserID(_uName, _uPass);\n        require(checkIfUserIdExisits(userID) == false, \"User Already Exists\");\n        _;\n    }\n\n    modifier checkEnoughAmountInCurrency(\n        uint _senderId,\n        string calldata _currency,\n        uint _amount,\n        uint _receiver\n    ) {\n        uint coinId = getCoinID(_currency);\n        require(checkUserExistance(_receiver) == true, \"User not Exists\");\n        require(usersMap[_senderId].userAmount[coinId] > 0, \"Not enough coins\");\n        require(\n            usersMap[_senderId].userAmount[coinId] > _amount,\n            \"Not enough coins\"\n        );\n        _;\n    }\n\n    // echecking user existance by its incremental id\n    function checkUserExistance(uint _userID) internal view returns (bool) {\n        bool result;\n        for (uint count = 0; count < totalUsers; count++) {\n            if (\n                keccak256(abi.encodePacked(usersMap[count].userID)) ==\n                keccak256(abi.encodePacked(usersMap[_userID].userID))\n            ) {\n                result = true;\n                break;\n            } else {\n                result = false;\n            }\n        }\n        return result;\n    }\n\n    // Help functions\n    function checkIfUserIdExisits(\n        bytes memory _userID\n    ) internal view returns (bool) {\n        bool result;\n        for (uint count = 0; count < totalUsers; count++) {\n            if (\n                keccak256(abi.encodePacked(usersMap[count].userID)) ==\n                keccak256(abi.encodePacked(_userID))\n            ) {\n                result = true;\n            } else {\n                result = false;\n            }\n        }\n        return result;\n    }\n\n    //\n    function getAllTransactions() external view returns (Transaction[] memory) {\n        return (allTransactions);\n    }\n\n    //\n    function getUserModel(uint _tracer) external view returns (User memory) {\n        return usersMap[_tracer];\n    }\n\n    //\n    function generateUserID(\n        string memory _uName,\n        string memory _uPass\n    ) internal pure returns (bytes memory) {\n        return abi.encodePacked(_uName, _uPass);\n    }\n\n    //\n    function getCoinID(string calldata _currency) internal pure returns (uint) {\n        if (\n            keccak256(abi.encodePacked(_currency)) ==\n            keccak256(abi.encodePacked(\"btc\"))\n        ) {\n            return 0;\n        } else if (\n            keccak256(abi.encodePacked(_currency)) ==\n            keccak256(abi.encodePacked(\"eth\"))\n        ) {\n            return 1;\n        } else if (\n            keccak256(abi.encodePacked(_currency)) ==\n            keccak256(abi.encodePacked(\"ltc\"))\n        ) {\n            return 2;\n        } else if (\n            keccak256(abi.encodePacked(_currency)) ==\n            keccak256(abi.encodePacked(\"sol\"))\n        ) {\n            return 3;\n        } else if (\n            keccak256(abi.encodePacked(_currency)) ==\n            keccak256(abi.encodePacked(\"bnb\"))\n        ) {\n            return 4;\n        } else {\n            revert(\"Wrong Coin Deposition Provided\");\n        }\n    }\n\n    function getAmounts(uint _id) external view returns (uint[5] memory) {\n        return usersMap[_id].userAmount;\n    }\n\n    function getCurrencies(uint _id) external view returns (string[5] memory) {\n        return usersMap[_id].userCurrencies;\n    }\n\n    function deposit(\n        uint _id,\n        uint _amount,\n        string calldata _currency\n    ) external {\n        uint coinId = getCoinID(_currency);\n        usersMap[_id].userAmount[coinId] += _amount;\n        emit TransactionSent(1000, _id, _currency, _amount);\n        transactionsMap[totalTransactions] = Transaction({\n            senderID: 1000,\n            receiverID: _id,\n            amountTransfered: _amount,\n            currencyTransfered: _currency,\n            tType: \"Deposit\"\n        });\n        allTransactions.push(transactionsMap[totalTransactions]);\n        totalTransactions++;\n    }\n\n    function signUp(\n        string calldata _userName,\n        string calldata _userBio,\n        string calldata _userPass,\n        string calldata _visa\n    ) external notOverWriteUser(_userName, _userPass) {\n        bytes memory userId = generateUserID(_userName, _userPass);\n        User memory user;\n        user = User({\n            accountID: totalUsers,\n            userAddress: msg.sender,\n            userName: _userName,\n            userBio: _userBio,\n            userPass: _userPass,\n            visaCard: _visa,\n            // transaction:Transaction(1,2),\n            userCurrencies: [\"btc\", \"eth\", \"ltc\", \"sol\", \"bnb\"],\n            userAmount: [uint(0), uint(0), uint(0), uint(0), uint(0)],\n            userID: userId\n        });\n\n        usersMap[totalUsers] = user;\n        emit UserCreated(_userName, totalUsers);\n        totalUsers++;\n    }\n\n    function login(\n        uint _tracerID,\n        string calldata _userName,\n        string calldata _password\n    ) external returns (User memory, bool) {\n        if (\n            (keccak256(abi.encodePacked(usersMap[_tracerID].userName)) ==\n                keccak256(abi.encodePacked(_userName))) &&\n            (keccak256(abi.encodePacked(usersMap[_tracerID].userPass)) ==\n                keccak256(abi.encodePacked(_password)))\n        ) {\n            emit UserLogin(\"Successfully Login\", _tracerID);\n            return (usersMap[_tracerID], true);\n        } else {\n            // to make sure all data provided is right\n            // using the bool value to complete login process in flutter\n            emit UserLogin(\"Login Failed, No user found\", _tracerID);\n\n            return (usersMap[_tracerID], false);\n        }\n    }\n\n    function transferFund(\n        uint _senderId,\n        uint _receiverId,\n        uint _amount,\n        string calldata _currency\n    )\n        external\n        checkEnoughAmountInCurrency(_senderId, _currency, _amount, _senderId)\n    {\n        uint coinId = getCoinID(_currency);\n        usersMap[_senderId].userAmount[coinId] -= _amount;\n        usersMap[_receiverId].userAmount[coinId] += _amount;\n        // creating a transaction\n        emit TransactionSent(_senderId, _receiverId, _currency, _amount);\n        transactionsMap[totalTransactions] = Transaction({\n            senderID: _senderId,\n            receiverID: _receiverId,\n            amountTransfered: _amount,\n            currencyTransfered: _currency,\n            tType: \"Transfer\"\n        });\n        allTransactions.push(transactionsMap[totalTransactions]);\n        totalTransactions++;\n    }\n}\n// (keccak256(abi.encodePacked(usersMap[_tracerID].userName)) == keccak256(abi.encodePacked(_userName)) )\n// && (keccak256(abi.encodePacked(usersMap[_tracerID].userPass)) == keccak256(abi.encodePacked(_password)) )\n",
  "sourcePath": "D:\\dApps Development\\crypto_statistics\\contracts\\CryptoWallet.sol",
  "compiler": {
    "name": "solc",
    "version": "0.8.13+commit.abaa5c0e.Emscripten.clang"
  },
  "schemaVersion": "3.4.14",
  "updatedAt": "2023-08-03T14:21:10.926Z",
  "networkType": "ethereum",
  "devdoc": {
    "kind": "dev",
    "methods": {},
    "version": 1
  },
  "userdoc": {
    "kind": "user",
    "methods": {},
    "version": 1
  }
}